{
	"practice3.sol": {
		"Voting": {
			"abi": [
				{
					"anonymous": false,
					"inputs": [
						{
							"indexed": true,
							"internalType": "address",
							"name": "voter",
							"type": "address"
						},
						{
							"indexed": false,
							"internalType": "string",
							"name": "candidate",
							"type": "string"
						}
					],
					"name": "Voted",
					"type": "event"
				},
				{
					"inputs": [
						{
							"internalType": "string",
							"name": "_candidate",
							"type": "string"
						}
					],
					"name": "vote",
					"outputs": [],
					"stateMutability": "nonpayable",
					"type": "function"
				},
				{
					"inputs": [
						{
							"internalType": "string",
							"name": "",
							"type": "string"
						}
					],
					"name": "votes",
					"outputs": [
						{
							"internalType": "uint256",
							"name": "",
							"type": "uint256"
						}
					],
					"stateMutability": "view",
					"type": "function"
				}
			],
			"devdoc": {
				"kind": "dev",
				"methods": {},
				"version": 1
			},
			"evm": {
				"assembly": "    /* \"practice3.sol\":60:327  contract Voting {... */\n  mstore(0x40, 0x80)\n  callvalue\n  dup1\n  iszero\n  tag_1\n  jumpi\n  0x00\n  dup1\n  revert\ntag_1:\n  pop\n  dataSize(sub_0)\n  dup1\n  dataOffset(sub_0)\n  0x00\n  codecopy\n  0x00\n  return\nstop\n\nsub_0: assembly {\n        /* \"practice3.sol\":60:327  contract Voting {... */\n      mstore(0x40, 0x80)\n      callvalue\n      dup1\n      iszero\n      tag_1\n      jumpi\n      0x00\n      dup1\n      revert\n    tag_1:\n      pop\n      jumpi(tag_2, lt(calldatasize, 0x04))\n      shr(0xe0, calldataload(0x00))\n      dup1\n      0xb99ef1fa\n      eq\n      tag_3\n      jumpi\n      dup1\n      0xfc36e15b\n      eq\n      tag_4\n      jumpi\n    tag_2:\n      0x00\n      dup1\n      revert\n        /* \"practice3.sol\":144:183  mapping(string => uint256) public votes */\n    tag_3:\n      tag_5\n      0x04\n      dup1\n      calldatasize\n      sub\n      dup2\n      add\n      swap1\n      tag_6\n      swap2\n      swap1\n      tag_7\n      jump\t// in\n    tag_6:\n      tag_8\n      jump\t// in\n    tag_5:\n      mload(0x40)\n      tag_9\n      swap2\n      swap1\n      tag_10\n      jump\t// in\n    tag_9:\n      mload(0x40)\n      dup1\n      swap2\n      sub\n      swap1\n      return\n        /* \"practice3.sol\":192:324  function vote(string memory _candidate) public {... */\n    tag_4:\n      tag_11\n      0x04\n      dup1\n      calldatasize\n      sub\n      dup2\n      add\n      swap1\n      tag_12\n      swap2\n      swap1\n      tag_7\n      jump\t// in\n    tag_12:\n      tag_13\n      jump\t// in\n    tag_11:\n      stop\n        /* \"practice3.sol\":144:183  mapping(string => uint256) public votes */\n    tag_8:\n      0x00\n      dup2\n      dup1\n      mload\n      0x20\n      dup2\n      add\n      dup3\n      add\n      dup1\n      mload\n      dup5\n      dup3\n      mstore\n      0x20\n      dup4\n      add\n      0x20\n      dup6\n      add\n      keccak256\n      dup2\n      dup4\n      mstore\n      dup1\n      swap6\n      pop\n      pop\n      pop\n      pop\n      pop\n      pop\n      0x00\n      swap2\n      pop\n      swap1\n      pop\n      sload\n      dup2\n      jump\t// out\n        /* \"practice3.sol\":192:324  function vote(string memory _candidate) public {... */\n    tag_13:\n        /* \"practice3.sol\":250:255  votes */\n      0x00\n        /* \"practice3.sol\":256:266  _candidate */\n      dup2\n        /* \"practice3.sol\":250:267  votes[_candidate] */\n      mload(0x40)\n      tag_15\n      swap2\n      swap1\n      tag_16\n      jump\t// in\n    tag_15:\n      swap1\n      dup2\n      mstore\n      0x20\n      add\n      mload(0x40)\n      dup1\n      swap2\n      sub\n      swap1\n      keccak256\n      0x00\n        /* \"practice3.sol\":250:269  votes[_candidate]++ */\n      dup2\n      sload\n      dup1\n      swap3\n      swap2\n      swap1\n      tag_17\n      swap1\n      tag_18\n      jump\t// in\n    tag_17:\n      swap2\n      swap1\n      pop\n      sstore\n      pop\n        /* \"practice3.sol\":293:303  msg.sender */\n      caller\n        /* \"practice3.sol\":287:316  Voted(msg.sender, _candidate) */\n      0xffffffffffffffffffffffffffffffffffffffff\n      and\n      0xcb6783276e8a4347387036bbfea000268f0a4b1f8c46ac79980609f2af8d2acd\n        /* \"practice3.sol\":305:315  _candidate */\n      dup3\n        /* \"practice3.sol\":287:316  Voted(msg.sender, _candidate) */\n      mload(0x40)\n      tag_19\n      swap2\n      swap1\n      tag_20\n      jump\t// in\n    tag_19:\n      mload(0x40)\n      dup1\n      swap2\n      sub\n      swap1\n      log2\n        /* \"practice3.sol\":192:324  function vote(string memory _candidate) public {... */\n      pop\n      jump\t// out\n        /* \"#utility.yul\":7:82   */\n    tag_21:\n        /* \"#utility.yul\":40:46   */\n      0x00\n        /* \"#utility.yul\":73:75   */\n      0x40\n        /* \"#utility.yul\":67:76   */\n      mload\n        /* \"#utility.yul\":57:76   */\n      swap1\n      pop\n        /* \"#utility.yul\":7:82   */\n      swap1\n      jump\t// out\n        /* \"#utility.yul\":88:205   */\n    tag_22:\n        /* \"#utility.yul\":197:198   */\n      0x00\n        /* \"#utility.yul\":194:195   */\n      dup1\n        /* \"#utility.yul\":187:199   */\n      revert\n        /* \"#utility.yul\":211:328   */\n    tag_23:\n        /* \"#utility.yul\":320:321   */\n      0x00\n        /* \"#utility.yul\":317:318   */\n      dup1\n        /* \"#utility.yul\":310:322   */\n      revert\n        /* \"#utility.yul\":334:451   */\n    tag_24:\n        /* \"#utility.yul\":443:444   */\n      0x00\n        /* \"#utility.yul\":440:441   */\n      dup1\n        /* \"#utility.yul\":433:445   */\n      revert\n        /* \"#utility.yul\":457:574   */\n    tag_25:\n        /* \"#utility.yul\":566:567   */\n      0x00\n        /* \"#utility.yul\":563:564   */\n      dup1\n        /* \"#utility.yul\":556:568   */\n      revert\n        /* \"#utility.yul\":580:682   */\n    tag_26:\n        /* \"#utility.yul\":621:627   */\n      0x00\n        /* \"#utility.yul\":672:674   */\n      0x1f\n        /* \"#utility.yul\":668:675   */\n      not\n        /* \"#utility.yul\":663:665   */\n      0x1f\n        /* \"#utility.yul\":656:661   */\n      dup4\n        /* \"#utility.yul\":652:666   */\n      add\n        /* \"#utility.yul\":648:676   */\n      and\n        /* \"#utility.yul\":638:676   */\n      swap1\n      pop\n        /* \"#utility.yul\":580:682   */\n      swap2\n      swap1\n      pop\n      jump\t// out\n        /* \"#utility.yul\":688:868   */\n    tag_27:\n        /* \"#utility.yul\":736:813   */\n      0x4e487b7100000000000000000000000000000000000000000000000000000000\n        /* \"#utility.yul\":733:734   */\n      0x00\n        /* \"#utility.yul\":726:814   */\n      mstore\n        /* \"#utility.yul\":833:837   */\n      0x41\n        /* \"#utility.yul\":830:831   */\n      0x04\n        /* \"#utility.yul\":823:838   */\n      mstore\n        /* \"#utility.yul\":857:861   */\n      0x24\n        /* \"#utility.yul\":854:855   */\n      0x00\n        /* \"#utility.yul\":847:862   */\n      revert\n        /* \"#utility.yul\":874:1155   */\n    tag_28:\n        /* \"#utility.yul\":957:984   */\n      tag_52\n        /* \"#utility.yul\":979:983   */\n      dup3\n        /* \"#utility.yul\":957:984   */\n      tag_26\n      jump\t// in\n    tag_52:\n        /* \"#utility.yul\":949:955   */\n      dup2\n        /* \"#utility.yul\":945:985   */\n      add\n        /* \"#utility.yul\":1087:1093   */\n      dup2\n        /* \"#utility.yul\":1075:1085   */\n      dup2\n        /* \"#utility.yul\":1072:1094   */\n      lt\n        /* \"#utility.yul\":1051:1069   */\n      0xffffffffffffffff\n        /* \"#utility.yul\":1039:1049   */\n      dup3\n        /* \"#utility.yul\":1036:1070   */\n      gt\n        /* \"#utility.yul\":1033:1095   */\n      or\n        /* \"#utility.yul\":1030:1118   */\n      iszero\n      tag_53\n      jumpi\n        /* \"#utility.yul\":1098:1116   */\n      tag_54\n      tag_27\n      jump\t// in\n    tag_54:\n        /* \"#utility.yul\":1030:1118   */\n    tag_53:\n        /* \"#utility.yul\":1138:1148   */\n      dup1\n        /* \"#utility.yul\":1134:1136   */\n      0x40\n        /* \"#utility.yul\":1127:1149   */\n      mstore\n        /* \"#utility.yul\":917:1155   */\n      pop\n        /* \"#utility.yul\":874:1155   */\n      pop\n      pop\n      jump\t// out\n        /* \"#utility.yul\":1161:1290   */\n    tag_29:\n        /* \"#utility.yul\":1195:1201   */\n      0x00\n        /* \"#utility.yul\":1222:1242   */\n      tag_56\n      tag_21\n      jump\t// in\n    tag_56:\n        /* \"#utility.yul\":1212:1242   */\n      swap1\n      pop\n        /* \"#utility.yul\":1251:1284   */\n      tag_57\n        /* \"#utility.yul\":1279:1283   */\n      dup3\n        /* \"#utility.yul\":1271:1277   */\n      dup3\n        /* \"#utility.yul\":1251:1284   */\n      tag_28\n      jump\t// in\n    tag_57:\n        /* \"#utility.yul\":1161:1290   */\n      swap2\n      swap1\n      pop\n      jump\t// out\n        /* \"#utility.yul\":1296:1604   */\n    tag_30:\n        /* \"#utility.yul\":1358:1362   */\n      0x00\n        /* \"#utility.yul\":1448:1466   */\n      0xffffffffffffffff\n        /* \"#utility.yul\":1440:1446   */\n      dup3\n        /* \"#utility.yul\":1437:1467   */\n      gt\n        /* \"#utility.yul\":1434:1490   */\n      iszero\n      tag_59\n      jumpi\n        /* \"#utility.yul\":1470:1488   */\n      tag_60\n      tag_27\n      jump\t// in\n    tag_60:\n        /* \"#utility.yul\":1434:1490   */\n    tag_59:\n        /* \"#utility.yul\":1508:1537   */\n      tag_61\n        /* \"#utility.yul\":1530:1536   */\n      dup3\n        /* \"#utility.yul\":1508:1537   */\n      tag_26\n      jump\t// in\n    tag_61:\n        /* \"#utility.yul\":1500:1537   */\n      swap1\n      pop\n        /* \"#utility.yul\":1592:1596   */\n      0x20\n        /* \"#utility.yul\":1586:1590   */\n      dup2\n        /* \"#utility.yul\":1582:1597   */\n      add\n        /* \"#utility.yul\":1574:1597   */\n      swap1\n      pop\n        /* \"#utility.yul\":1296:1604   */\n      swap2\n      swap1\n      pop\n      jump\t// out\n        /* \"#utility.yul\":1610:1758   */\n    tag_31:\n        /* \"#utility.yul\":1708:1714   */\n      dup3\n        /* \"#utility.yul\":1703:1706   */\n      dup2\n        /* \"#utility.yul\":1698:1701   */\n      dup4\n        /* \"#utility.yul\":1685:1715   */\n      calldatacopy\n        /* \"#utility.yul\":1749:1750   */\n      0x00\n        /* \"#utility.yul\":1740:1746   */\n      dup4\n        /* \"#utility.yul\":1735:1738   */\n      dup4\n        /* \"#utility.yul\":1731:1747   */\n      add\n        /* \"#utility.yul\":1724:1751   */\n      mstore\n        /* \"#utility.yul\":1610:1758   */\n      pop\n      pop\n      pop\n      jump\t// out\n        /* \"#utility.yul\":1764:2189   */\n    tag_32:\n        /* \"#utility.yul\":1842:1847   */\n      0x00\n        /* \"#utility.yul\":1867:1933   */\n      tag_64\n        /* \"#utility.yul\":1883:1932   */\n      tag_65\n        /* \"#utility.yul\":1925:1931   */\n      dup5\n        /* \"#utility.yul\":1883:1932   */\n      tag_30\n      jump\t// in\n    tag_65:\n        /* \"#utility.yul\":1867:1933   */\n      tag_29\n      jump\t// in\n    tag_64:\n        /* \"#utility.yul\":1858:1933   */\n      swap1\n      pop\n        /* \"#utility.yul\":1956:1962   */\n      dup3\n        /* \"#utility.yul\":1949:1954   */\n      dup2\n        /* \"#utility.yul\":1942:1963   */\n      mstore\n        /* \"#utility.yul\":1994:1998   */\n      0x20\n        /* \"#utility.yul\":1987:1992   */\n      dup2\n        /* \"#utility.yul\":1983:1999   */\n      add\n        /* \"#utility.yul\":2032:2035   */\n      dup5\n        /* \"#utility.yul\":2023:2029   */\n      dup5\n        /* \"#utility.yul\":2018:2021   */\n      dup5\n        /* \"#utility.yul\":2014:2030   */\n      add\n        /* \"#utility.yul\":2011:2036   */\n      gt\n        /* \"#utility.yul\":2008:2120   */\n      iszero\n      tag_66\n      jumpi\n        /* \"#utility.yul\":2039:2118   */\n      tag_67\n      tag_25\n      jump\t// in\n    tag_67:\n        /* \"#utility.yul\":2008:2120   */\n    tag_66:\n        /* \"#utility.yul\":2129:2183   */\n      tag_68\n        /* \"#utility.yul\":2176:2182   */\n      dup5\n        /* \"#utility.yul\":2171:2174   */\n      dup3\n        /* \"#utility.yul\":2166:2169   */\n      dup6\n        /* \"#utility.yul\":2129:2183   */\n      tag_31\n      jump\t// in\n    tag_68:\n        /* \"#utility.yul\":1848:2189   */\n      pop\n        /* \"#utility.yul\":1764:2189   */\n      swap4\n      swap3\n      pop\n      pop\n      pop\n      jump\t// out\n        /* \"#utility.yul\":2209:2549   */\n    tag_33:\n        /* \"#utility.yul\":2265:2270   */\n      0x00\n        /* \"#utility.yul\":2314:2317   */\n      dup3\n        /* \"#utility.yul\":2307:2311   */\n      0x1f\n        /* \"#utility.yul\":2299:2305   */\n      dup4\n        /* \"#utility.yul\":2295:2312   */\n      add\n        /* \"#utility.yul\":2291:2318   */\n      slt\n        /* \"#utility.yul\":2281:2403   */\n      tag_70\n      jumpi\n        /* \"#utility.yul\":2322:2401   */\n      tag_71\n      tag_24\n      jump\t// in\n    tag_71:\n        /* \"#utility.yul\":2281:2403   */\n    tag_70:\n        /* \"#utility.yul\":2439:2445   */\n      dup2\n        /* \"#utility.yul\":2426:2446   */\n      calldataload\n        /* \"#utility.yul\":2464:2543   */\n      tag_72\n        /* \"#utility.yul\":2539:2542   */\n      dup5\n        /* \"#utility.yul\":2531:2537   */\n      dup3\n        /* \"#utility.yul\":2524:2528   */\n      0x20\n        /* \"#utility.yul\":2516:2522   */\n      dup7\n        /* \"#utility.yul\":2512:2529   */\n      add\n        /* \"#utility.yul\":2464:2543   */\n      tag_32\n      jump\t// in\n    tag_72:\n        /* \"#utility.yul\":2455:2543   */\n      swap2\n      pop\n        /* \"#utility.yul\":2271:2549   */\n      pop\n        /* \"#utility.yul\":2209:2549   */\n      swap3\n      swap2\n      pop\n      pop\n      jump\t// out\n        /* \"#utility.yul\":2555:3064   */\n    tag_7:\n        /* \"#utility.yul\":2624:2630   */\n      0x00\n        /* \"#utility.yul\":2673:2675   */\n      0x20\n        /* \"#utility.yul\":2661:2670   */\n      dup3\n        /* \"#utility.yul\":2652:2659   */\n      dup5\n        /* \"#utility.yul\":2648:2671   */\n      sub\n        /* \"#utility.yul\":2644:2676   */\n      slt\n        /* \"#utility.yul\":2641:2760   */\n      iszero\n      tag_74\n      jumpi\n        /* \"#utility.yul\":2679:2758   */\n      tag_75\n      tag_22\n      jump\t// in\n    tag_75:\n        /* \"#utility.yul\":2641:2760   */\n    tag_74:\n        /* \"#utility.yul\":2827:2828   */\n      0x00\n        /* \"#utility.yul\":2816:2825   */\n      dup3\n        /* \"#utility.yul\":2812:2829   */\n      add\n        /* \"#utility.yul\":2799:2830   */\n      calldataload\n        /* \"#utility.yul\":2857:2875   */\n      0xffffffffffffffff\n        /* \"#utility.yul\":2849:2855   */\n      dup2\n        /* \"#utility.yul\":2846:2876   */\n      gt\n        /* \"#utility.yul\":2843:2960   */\n      iszero\n      tag_76\n      jumpi\n        /* \"#utility.yul\":2879:2958   */\n      tag_77\n      tag_23\n      jump\t// in\n    tag_77:\n        /* \"#utility.yul\":2843:2960   */\n    tag_76:\n        /* \"#utility.yul\":2984:3047   */\n      tag_78\n        /* \"#utility.yul\":3039:3046   */\n      dup5\n        /* \"#utility.yul\":3030:3036   */\n      dup3\n        /* \"#utility.yul\":3019:3028   */\n      dup6\n        /* \"#utility.yul\":3015:3037   */\n      add\n        /* \"#utility.yul\":2984:3047   */\n      tag_33\n      jump\t// in\n    tag_78:\n        /* \"#utility.yul\":2974:3047   */\n      swap2\n      pop\n        /* \"#utility.yul\":2770:3057   */\n      pop\n        /* \"#utility.yul\":2555:3064   */\n      swap3\n      swap2\n      pop\n      pop\n      jump\t// out\n        /* \"#utility.yul\":3070:3147   */\n    tag_34:\n        /* \"#utility.yul\":3107:3114   */\n      0x00\n        /* \"#utility.yul\":3136:3141   */\n      dup2\n        /* \"#utility.yul\":3125:3141   */\n      swap1\n      pop\n        /* \"#utility.yul\":3070:3147   */\n      swap2\n      swap1\n      pop\n      jump\t// out\n        /* \"#utility.yul\":3153:3271   */\n    tag_35:\n        /* \"#utility.yul\":3240:3264   */\n      tag_81\n        /* \"#utility.yul\":3258:3263   */\n      dup2\n        /* \"#utility.yul\":3240:3264   */\n      tag_34\n      jump\t// in\n    tag_81:\n        /* \"#utility.yul\":3235:3238   */\n      dup3\n        /* \"#utility.yul\":3228:3265   */\n      mstore\n        /* \"#utility.yul\":3153:3271   */\n      pop\n      pop\n      jump\t// out\n        /* \"#utility.yul\":3277:3499   */\n    tag_10:\n        /* \"#utility.yul\":3370:3374   */\n      0x00\n        /* \"#utility.yul\":3408:3410   */\n      0x20\n        /* \"#utility.yul\":3397:3406   */\n      dup3\n        /* \"#utility.yul\":3393:3411   */\n      add\n        /* \"#utility.yul\":3385:3411   */\n      swap1\n      pop\n        /* \"#utility.yul\":3421:3492   */\n      tag_83\n        /* \"#utility.yul\":3489:3490   */\n      0x00\n        /* \"#utility.yul\":3478:3487   */\n      dup4\n        /* \"#utility.yul\":3474:3491   */\n      add\n        /* \"#utility.yul\":3465:3471   */\n      dup5\n        /* \"#utility.yul\":3421:3492   */\n      tag_35\n      jump\t// in\n    tag_83:\n        /* \"#utility.yul\":3277:3499   */\n      swap3\n      swap2\n      pop\n      pop\n      jump\t// out\n        /* \"#utility.yul\":3505:3604   */\n    tag_36:\n        /* \"#utility.yul\":3557:3563   */\n      0x00\n        /* \"#utility.yul\":3591:3596   */\n      dup2\n        /* \"#utility.yul\":3585:3597   */\n      mload\n        /* \"#utility.yul\":3575:3597   */\n      swap1\n      pop\n        /* \"#utility.yul\":3505:3604   */\n      swap2\n      swap1\n      pop\n      jump\t// out\n        /* \"#utility.yul\":3610:3758   */\n    tag_37:\n        /* \"#utility.yul\":3712:3723   */\n      0x00\n        /* \"#utility.yul\":3749:3752   */\n      dup2\n        /* \"#utility.yul\":3734:3752   */\n      swap1\n      pop\n        /* \"#utility.yul\":3610:3758   */\n      swap3\n      swap2\n      pop\n      pop\n      jump\t// out\n        /* \"#utility.yul\":3764:3903   */\n    tag_38:\n        /* \"#utility.yul\":3853:3859   */\n      dup3\n        /* \"#utility.yul\":3848:3851   */\n      dup2\n        /* \"#utility.yul\":3843:3846   */\n      dup4\n        /* \"#utility.yul\":3837:3860   */\n      mcopy\n        /* \"#utility.yul\":3894:3895   */\n      0x00\n        /* \"#utility.yul\":3885:3891   */\n      dup4\n        /* \"#utility.yul\":3880:3883   */\n      dup4\n        /* \"#utility.yul\":3876:3892   */\n      add\n        /* \"#utility.yul\":3869:3896   */\n      mstore\n        /* \"#utility.yul\":3764:3903   */\n      pop\n      pop\n      pop\n      jump\t// out\n        /* \"#utility.yul\":3909:4299   */\n    tag_39:\n        /* \"#utility.yul\":4015:4018   */\n      0x00\n        /* \"#utility.yul\":4043:4082   */\n      tag_88\n        /* \"#utility.yul\":4076:4081   */\n      dup3\n        /* \"#utility.yul\":4043:4082   */\n      tag_36\n      jump\t// in\n    tag_88:\n        /* \"#utility.yul\":4098:4187   */\n      tag_89\n        /* \"#utility.yul\":4180:4186   */\n      dup2\n        /* \"#utility.yul\":4175:4178   */\n      dup6\n        /* \"#utility.yul\":4098:4187   */\n      tag_37\n      jump\t// in\n    tag_89:\n        /* \"#utility.yul\":4091:4187   */\n      swap4\n      pop\n        /* \"#utility.yul\":4196:4261   */\n      tag_90\n        /* \"#utility.yul\":4254:4260   */\n      dup2\n        /* \"#utility.yul\":4249:4252   */\n      dup6\n        /* \"#utility.yul\":4242:4246   */\n      0x20\n        /* \"#utility.yul\":4235:4240   */\n      dup7\n        /* \"#utility.yul\":4231:4247   */\n      add\n        /* \"#utility.yul\":4196:4261   */\n      tag_38\n      jump\t// in\n    tag_90:\n        /* \"#utility.yul\":4286:4292   */\n      dup1\n        /* \"#utility.yul\":4281:4284   */\n      dup5\n        /* \"#utility.yul\":4277:4293   */\n      add\n        /* \"#utility.yul\":4270:4293   */\n      swap2\n      pop\n        /* \"#utility.yul\":4019:4299   */\n      pop\n        /* \"#utility.yul\":3909:4299   */\n      swap3\n      swap2\n      pop\n      pop\n      jump\t// out\n        /* \"#utility.yul\":4305:4580   */\n    tag_16:\n        /* \"#utility.yul\":4437:4440   */\n      0x00\n        /* \"#utility.yul\":4459:4554   */\n      tag_92\n        /* \"#utility.yul\":4550:4553   */\n      dup3\n        /* \"#utility.yul\":4541:4547   */\n      dup5\n        /* \"#utility.yul\":4459:4554   */\n      tag_39\n      jump\t// in\n    tag_92:\n        /* \"#utility.yul\":4452:4554   */\n      swap2\n      pop\n        /* \"#utility.yul\":4571:4574   */\n      dup2\n        /* \"#utility.yul\":4564:4574   */\n      swap1\n      pop\n        /* \"#utility.yul\":4305:4580   */\n      swap3\n      swap2\n      pop\n      pop\n      jump\t// out\n        /* \"#utility.yul\":4586:4766   */\n    tag_40:\n        /* \"#utility.yul\":4634:4711   */\n      0x4e487b7100000000000000000000000000000000000000000000000000000000\n        /* \"#utility.yul\":4631:4632   */\n      0x00\n        /* \"#utility.yul\":4624:4712   */\n      mstore\n        /* \"#utility.yul\":4731:4735   */\n      0x11\n        /* \"#utility.yul\":4728:4729   */\n      0x04\n        /* \"#utility.yul\":4721:4736   */\n      mstore\n        /* \"#utility.yul\":4755:4759   */\n      0x24\n        /* \"#utility.yul\":4752:4753   */\n      0x00\n        /* \"#utility.yul\":4745:4760   */\n      revert\n        /* \"#utility.yul\":4772:5005   */\n    tag_18:\n        /* \"#utility.yul\":4811:4814   */\n      0x00\n        /* \"#utility.yul\":4834:4858   */\n      tag_95\n        /* \"#utility.yul\":4852:4857   */\n      dup3\n        /* \"#utility.yul\":4834:4858   */\n      tag_34\n      jump\t// in\n    tag_95:\n        /* \"#utility.yul\":4825:4858   */\n      swap2\n      pop\n        /* \"#utility.yul\":4880:4946   */\n      0xffffffffffffffffffffffffffffffffffffffffffffffffffffffffffffffff\n        /* \"#utility.yul\":4873:4878   */\n      dup3\n        /* \"#utility.yul\":4870:4947   */\n      sub\n        /* \"#utility.yul\":4867:4970   */\n      tag_96\n      jumpi\n        /* \"#utility.yul\":4950:4968   */\n      tag_97\n      tag_40\n      jump\t// in\n    tag_97:\n        /* \"#utility.yul\":4867:4970   */\n    tag_96:\n        /* \"#utility.yul\":4997:4998   */\n      0x01\n        /* \"#utility.yul\":4990:4995   */\n      dup3\n        /* \"#utility.yul\":4986:4999   */\n      add\n        /* \"#utility.yul\":4979:4999   */\n      swap1\n      pop\n        /* \"#utility.yul\":4772:5005   */\n      swap2\n      swap1\n      pop\n      jump\t// out\n        /* \"#utility.yul\":5011:5180   */\n    tag_41:\n        /* \"#utility.yul\":5095:5106   */\n      0x00\n        /* \"#utility.yul\":5129:5135   */\n      dup3\n        /* \"#utility.yul\":5124:5127   */\n      dup3\n        /* \"#utility.yul\":5117:5136   */\n      mstore\n        /* \"#utility.yul\":5169:5173   */\n      0x20\n        /* \"#utility.yul\":5164:5167   */\n      dup3\n        /* \"#utility.yul\":5160:5174   */\n      add\n        /* \"#utility.yul\":5145:5174   */\n      swap1\n      pop\n        /* \"#utility.yul\":5011:5180   */\n      swap3\n      swap2\n      pop\n      pop\n      jump\t// out\n        /* \"#utility.yul\":5186:5563   */\n    tag_42:\n        /* \"#utility.yul\":5274:5277   */\n      0x00\n        /* \"#utility.yul\":5302:5341   */\n      tag_100\n        /* \"#utility.yul\":5335:5340   */\n      dup3\n        /* \"#utility.yul\":5302:5341   */\n      tag_36\n      jump\t// in\n    tag_100:\n        /* \"#utility.yul\":5357:5428   */\n      tag_101\n        /* \"#utility.yul\":5421:5427   */\n      dup2\n        /* \"#utility.yul\":5416:5419   */\n      dup6\n        /* \"#utility.yul\":5357:5428   */\n      tag_41\n      jump\t// in\n    tag_101:\n        /* \"#utility.yul\":5350:5428   */\n      swap4\n      pop\n        /* \"#utility.yul\":5437:5502   */\n      tag_102\n        /* \"#utility.yul\":5495:5501   */\n      dup2\n        /* \"#utility.yul\":5490:5493   */\n      dup6\n        /* \"#utility.yul\":5483:5487   */\n      0x20\n        /* \"#utility.yul\":5476:5481   */\n      dup7\n        /* \"#utility.yul\":5472:5488   */\n      add\n        /* \"#utility.yul\":5437:5502   */\n      tag_38\n      jump\t// in\n    tag_102:\n        /* \"#utility.yul\":5527:5556   */\n      tag_103\n        /* \"#utility.yul\":5549:5555   */\n      dup2\n        /* \"#utility.yul\":5527:5556   */\n      tag_26\n      jump\t// in\n    tag_103:\n        /* \"#utility.yul\":5522:5525   */\n      dup5\n        /* \"#utility.yul\":5518:5557   */\n      add\n        /* \"#utility.yul\":5511:5557   */\n      swap2\n      pop\n        /* \"#utility.yul\":5278:5563   */\n      pop\n        /* \"#utility.yul\":5186:5563   */\n      swap3\n      swap2\n      pop\n      pop\n      jump\t// out\n        /* \"#utility.yul\":5569:5882   */\n    tag_20:\n        /* \"#utility.yul\":5682:5686   */\n      0x00\n        /* \"#utility.yul\":5720:5722   */\n      0x20\n        /* \"#utility.yul\":5709:5718   */\n      dup3\n        /* \"#utility.yul\":5705:5723   */\n      add\n        /* \"#utility.yul\":5697:5723   */\n      swap1\n      pop\n        /* \"#utility.yul\":5769:5778   */\n      dup2\n        /* \"#utility.yul\":5763:5767   */\n      dup2\n        /* \"#utility.yul\":5759:5779   */\n      sub\n        /* \"#utility.yul\":5755:5756   */\n      0x00\n        /* \"#utility.yul\":5744:5753   */\n      dup4\n        /* \"#utility.yul\":5740:5757   */\n      add\n        /* \"#utility.yul\":5733:5780   */\n      mstore\n        /* \"#utility.yul\":5797:5875   */\n      tag_105\n        /* \"#utility.yul\":5870:5874   */\n      dup2\n        /* \"#utility.yul\":5861:5867   */\n      dup5\n        /* \"#utility.yul\":5797:5875   */\n      tag_42\n      jump\t// in\n    tag_105:\n        /* \"#utility.yul\":5789:5875   */\n      swap1\n      pop\n        /* \"#utility.yul\":5569:5882   */\n      swap3\n      swap2\n      pop\n      pop\n      jump\t// out\n\n    auxdata: 0xa2646970667358221220c7171dd4240361154474c01550dcd675f24533da14f9c123ad4d32ed3eb8fa9264736f6c634300081a0033\n}\n",
				"bytecode": {
					"linkReferences": {},
					"object": "6080604052348015600e575f80fd5b506104728061001c5f395ff3fe608060405234801561000f575f80fd5b5060043610610034575f3560e01c8063b99ef1fa14610038578063fc36e15b14610068575b5f80fd5b610052600480360381019061004d9190610280565b610084565b60405161005f91906102df565b60405180910390f35b610082600480360381019061007d9190610280565b6100b0565b005b5f818051602081018201805184825260208301602085012081835280955050505050505f915090505481565b5f816040516100bf919061034a565b90815260200160405180910390205f8154809291906100dd9061038d565b91905055503373ffffffffffffffffffffffffffffffffffffffff167fcb6783276e8a4347387036bbfea000268f0a4b1f8c46ac79980609f2af8d2acd82604051610128919061041c565b60405180910390a250565b5f604051905090565b5f80fd5b5f80fd5b5f80fd5b5f80fd5b5f601f19601f8301169050919050565b7f4e487b71000000000000000000000000000000000000000000000000000000005f52604160045260245ffd5b6101928261014c565b810181811067ffffffffffffffff821117156101b1576101b061015c565b5b80604052505050565b5f6101c3610133565b90506101cf8282610189565b919050565b5f67ffffffffffffffff8211156101ee576101ed61015c565b5b6101f78261014c565b9050602081019050919050565b828183375f83830152505050565b5f61022461021f846101d4565b6101ba565b9050828152602081018484840111156102405761023f610148565b5b61024b848285610204565b509392505050565b5f82601f83011261026757610266610144565b5b8135610277848260208601610212565b91505092915050565b5f602082840312156102955761029461013c565b5b5f82013567ffffffffffffffff8111156102b2576102b1610140565b5b6102be84828501610253565b91505092915050565b5f819050919050565b6102d9816102c7565b82525050565b5f6020820190506102f25f8301846102d0565b92915050565b5f81519050919050565b5f81905092915050565b8281835e5f83830152505050565b5f610324826102f8565b61032e8185610302565b935061033e81856020860161030c565b80840191505092915050565b5f610355828461031a565b915081905092915050565b7f4e487b71000000000000000000000000000000000000000000000000000000005f52601160045260245ffd5b5f610397826102c7565b91507fffffffffffffffffffffffffffffffffffffffffffffffffffffffffffffffff82036103c9576103c8610360565b5b600182019050919050565b5f82825260208201905092915050565b5f6103ee826102f8565b6103f881856103d4565b935061040881856020860161030c565b6104118161014c565b840191505092915050565b5f6020820190508181035f83015261043481846103e4565b90509291505056fea2646970667358221220c7171dd4240361154474c01550dcd675f24533da14f9c123ad4d32ed3eb8fa9264736f6c634300081a0033",
					"opcodes": "PUSH1 0x80 PUSH1 0x40 MSTORE CALLVALUE DUP1 ISZERO PUSH1 0xE JUMPI PUSH0 DUP1 REVERT JUMPDEST POP PUSH2 0x472 DUP1 PUSH2 0x1C PUSH0 CODECOPY PUSH0 RETURN INVALID PUSH1 0x80 PUSH1 0x40 MSTORE CALLVALUE DUP1 ISZERO PUSH2 0xF JUMPI PUSH0 DUP1 REVERT JUMPDEST POP PUSH1 0x4 CALLDATASIZE LT PUSH2 0x34 JUMPI PUSH0 CALLDATALOAD PUSH1 0xE0 SHR DUP1 PUSH4 0xB99EF1FA EQ PUSH2 0x38 JUMPI DUP1 PUSH4 0xFC36E15B EQ PUSH2 0x68 JUMPI JUMPDEST PUSH0 DUP1 REVERT JUMPDEST PUSH2 0x52 PUSH1 0x4 DUP1 CALLDATASIZE SUB DUP2 ADD SWAP1 PUSH2 0x4D SWAP2 SWAP1 PUSH2 0x280 JUMP JUMPDEST PUSH2 0x84 JUMP JUMPDEST PUSH1 0x40 MLOAD PUSH2 0x5F SWAP2 SWAP1 PUSH2 0x2DF JUMP JUMPDEST PUSH1 0x40 MLOAD DUP1 SWAP2 SUB SWAP1 RETURN JUMPDEST PUSH2 0x82 PUSH1 0x4 DUP1 CALLDATASIZE SUB DUP2 ADD SWAP1 PUSH2 0x7D SWAP2 SWAP1 PUSH2 0x280 JUMP JUMPDEST PUSH2 0xB0 JUMP JUMPDEST STOP JUMPDEST PUSH0 DUP2 DUP1 MLOAD PUSH1 0x20 DUP2 ADD DUP3 ADD DUP1 MLOAD DUP5 DUP3 MSTORE PUSH1 0x20 DUP4 ADD PUSH1 0x20 DUP6 ADD KECCAK256 DUP2 DUP4 MSTORE DUP1 SWAP6 POP POP POP POP POP POP PUSH0 SWAP2 POP SWAP1 POP SLOAD DUP2 JUMP JUMPDEST PUSH0 DUP2 PUSH1 0x40 MLOAD PUSH2 0xBF SWAP2 SWAP1 PUSH2 0x34A JUMP JUMPDEST SWAP1 DUP2 MSTORE PUSH1 0x20 ADD PUSH1 0x40 MLOAD DUP1 SWAP2 SUB SWAP1 KECCAK256 PUSH0 DUP2 SLOAD DUP1 SWAP3 SWAP2 SWAP1 PUSH2 0xDD SWAP1 PUSH2 0x38D JUMP JUMPDEST SWAP2 SWAP1 POP SSTORE POP CALLER PUSH20 0xFFFFFFFFFFFFFFFFFFFFFFFFFFFFFFFFFFFFFFFF AND PUSH32 0xCB6783276E8A4347387036BBFEA000268F0A4B1F8C46AC79980609F2AF8D2ACD DUP3 PUSH1 0x40 MLOAD PUSH2 0x128 SWAP2 SWAP1 PUSH2 0x41C JUMP JUMPDEST PUSH1 0x40 MLOAD DUP1 SWAP2 SUB SWAP1 LOG2 POP JUMP JUMPDEST PUSH0 PUSH1 0x40 MLOAD SWAP1 POP SWAP1 JUMP JUMPDEST PUSH0 DUP1 REVERT JUMPDEST PUSH0 DUP1 REVERT JUMPDEST PUSH0 DUP1 REVERT JUMPDEST PUSH0 DUP1 REVERT JUMPDEST PUSH0 PUSH1 0x1F NOT PUSH1 0x1F DUP4 ADD AND SWAP1 POP SWAP2 SWAP1 POP JUMP JUMPDEST PUSH32 0x4E487B7100000000000000000000000000000000000000000000000000000000 PUSH0 MSTORE PUSH1 0x41 PUSH1 0x4 MSTORE PUSH1 0x24 PUSH0 REVERT JUMPDEST PUSH2 0x192 DUP3 PUSH2 0x14C JUMP JUMPDEST DUP2 ADD DUP2 DUP2 LT PUSH8 0xFFFFFFFFFFFFFFFF DUP3 GT OR ISZERO PUSH2 0x1B1 JUMPI PUSH2 0x1B0 PUSH2 0x15C JUMP JUMPDEST JUMPDEST DUP1 PUSH1 0x40 MSTORE POP POP POP JUMP JUMPDEST PUSH0 PUSH2 0x1C3 PUSH2 0x133 JUMP JUMPDEST SWAP1 POP PUSH2 0x1CF DUP3 DUP3 PUSH2 0x189 JUMP JUMPDEST SWAP2 SWAP1 POP JUMP JUMPDEST PUSH0 PUSH8 0xFFFFFFFFFFFFFFFF DUP3 GT ISZERO PUSH2 0x1EE JUMPI PUSH2 0x1ED PUSH2 0x15C JUMP JUMPDEST JUMPDEST PUSH2 0x1F7 DUP3 PUSH2 0x14C JUMP JUMPDEST SWAP1 POP PUSH1 0x20 DUP2 ADD SWAP1 POP SWAP2 SWAP1 POP JUMP JUMPDEST DUP3 DUP2 DUP4 CALLDATACOPY PUSH0 DUP4 DUP4 ADD MSTORE POP POP POP JUMP JUMPDEST PUSH0 PUSH2 0x224 PUSH2 0x21F DUP5 PUSH2 0x1D4 JUMP JUMPDEST PUSH2 0x1BA JUMP JUMPDEST SWAP1 POP DUP3 DUP2 MSTORE PUSH1 0x20 DUP2 ADD DUP5 DUP5 DUP5 ADD GT ISZERO PUSH2 0x240 JUMPI PUSH2 0x23F PUSH2 0x148 JUMP JUMPDEST JUMPDEST PUSH2 0x24B DUP5 DUP3 DUP6 PUSH2 0x204 JUMP JUMPDEST POP SWAP4 SWAP3 POP POP POP JUMP JUMPDEST PUSH0 DUP3 PUSH1 0x1F DUP4 ADD SLT PUSH2 0x267 JUMPI PUSH2 0x266 PUSH2 0x144 JUMP JUMPDEST JUMPDEST DUP2 CALLDATALOAD PUSH2 0x277 DUP5 DUP3 PUSH1 0x20 DUP7 ADD PUSH2 0x212 JUMP JUMPDEST SWAP2 POP POP SWAP3 SWAP2 POP POP JUMP JUMPDEST PUSH0 PUSH1 0x20 DUP3 DUP5 SUB SLT ISZERO PUSH2 0x295 JUMPI PUSH2 0x294 PUSH2 0x13C JUMP JUMPDEST JUMPDEST PUSH0 DUP3 ADD CALLDATALOAD PUSH8 0xFFFFFFFFFFFFFFFF DUP2 GT ISZERO PUSH2 0x2B2 JUMPI PUSH2 0x2B1 PUSH2 0x140 JUMP JUMPDEST JUMPDEST PUSH2 0x2BE DUP5 DUP3 DUP6 ADD PUSH2 0x253 JUMP JUMPDEST SWAP2 POP POP SWAP3 SWAP2 POP POP JUMP JUMPDEST PUSH0 DUP2 SWAP1 POP SWAP2 SWAP1 POP JUMP JUMPDEST PUSH2 0x2D9 DUP2 PUSH2 0x2C7 JUMP JUMPDEST DUP3 MSTORE POP POP JUMP JUMPDEST PUSH0 PUSH1 0x20 DUP3 ADD SWAP1 POP PUSH2 0x2F2 PUSH0 DUP4 ADD DUP5 PUSH2 0x2D0 JUMP JUMPDEST SWAP3 SWAP2 POP POP JUMP JUMPDEST PUSH0 DUP2 MLOAD SWAP1 POP SWAP2 SWAP1 POP JUMP JUMPDEST PUSH0 DUP2 SWAP1 POP SWAP3 SWAP2 POP POP JUMP JUMPDEST DUP3 DUP2 DUP4 MCOPY PUSH0 DUP4 DUP4 ADD MSTORE POP POP POP JUMP JUMPDEST PUSH0 PUSH2 0x324 DUP3 PUSH2 0x2F8 JUMP JUMPDEST PUSH2 0x32E DUP2 DUP6 PUSH2 0x302 JUMP JUMPDEST SWAP4 POP PUSH2 0x33E DUP2 DUP6 PUSH1 0x20 DUP7 ADD PUSH2 0x30C JUMP JUMPDEST DUP1 DUP5 ADD SWAP2 POP POP SWAP3 SWAP2 POP POP JUMP JUMPDEST PUSH0 PUSH2 0x355 DUP3 DUP5 PUSH2 0x31A JUMP JUMPDEST SWAP2 POP DUP2 SWAP1 POP SWAP3 SWAP2 POP POP JUMP JUMPDEST PUSH32 0x4E487B7100000000000000000000000000000000000000000000000000000000 PUSH0 MSTORE PUSH1 0x11 PUSH1 0x4 MSTORE PUSH1 0x24 PUSH0 REVERT JUMPDEST PUSH0 PUSH2 0x397 DUP3 PUSH2 0x2C7 JUMP JUMPDEST SWAP2 POP PUSH32 0xFFFFFFFFFFFFFFFFFFFFFFFFFFFFFFFFFFFFFFFFFFFFFFFFFFFFFFFFFFFFFFFF DUP3 SUB PUSH2 0x3C9 JUMPI PUSH2 0x3C8 PUSH2 0x360 JUMP JUMPDEST JUMPDEST PUSH1 0x1 DUP3 ADD SWAP1 POP SWAP2 SWAP1 POP JUMP JUMPDEST PUSH0 DUP3 DUP3 MSTORE PUSH1 0x20 DUP3 ADD SWAP1 POP SWAP3 SWAP2 POP POP JUMP JUMPDEST PUSH0 PUSH2 0x3EE DUP3 PUSH2 0x2F8 JUMP JUMPDEST PUSH2 0x3F8 DUP2 DUP6 PUSH2 0x3D4 JUMP JUMPDEST SWAP4 POP PUSH2 0x408 DUP2 DUP6 PUSH1 0x20 DUP7 ADD PUSH2 0x30C JUMP JUMPDEST PUSH2 0x411 DUP2 PUSH2 0x14C JUMP JUMPDEST DUP5 ADD SWAP2 POP POP SWAP3 SWAP2 POP POP JUMP JUMPDEST PUSH0 PUSH1 0x20 DUP3 ADD SWAP1 POP DUP2 DUP2 SUB PUSH0 DUP4 ADD MSTORE PUSH2 0x434 DUP2 DUP5 PUSH2 0x3E4 JUMP JUMPDEST SWAP1 POP SWAP3 SWAP2 POP POP JUMP INVALID LOG2 PUSH5 0x6970667358 0x22 SLT KECCAK256 0xC7 OR SAR 0xD4 0x24 SUB PUSH2 0x1544 PUSH21 0xC01550DCD675F24533DA14F9C123AD4D32ED3EB8FA SWAP3 PUSH5 0x736F6C6343 STOP ADDMOD BYTE STOP CALLER "
				},
				"gasEstimates": {
					"creation": {
						"codeDepositCost": "227600",
						"executionCost": "267",
						"totalCost": "227867"
					},
					"external": {
						"vote(string)": "infinite",
						"votes(string)": "infinite"
					}
				},
				"methodIdentifiers": {
					"vote(string)": "fc36e15b",
					"votes(string)": "b99ef1fa"
				}
			},
			"storageLayout": {
				"storage": [
					{
						"astId": 11,
						"contract": "practice3.sol:Voting",
						"label": "votes",
						"offset": 0,
						"slot": "0",
						"type": "t_mapping(t_string_memory_ptr,t_uint256)"
					}
				],
				"types": {
					"t_mapping(t_string_memory_ptr,t_uint256)": {
						"encoding": "mapping",
						"key": "t_string_memory_ptr",
						"label": "mapping(string => uint256)",
						"numberOfBytes": "32",
						"value": "t_uint256"
					},
					"t_string_memory_ptr": {
						"encoding": "bytes",
						"label": "string",
						"numberOfBytes": "32"
					},
					"t_uint256": {
						"encoding": "inplace",
						"label": "uint256",
						"numberOfBytes": "32"
					}
				}
			},
			"userdoc": {
				"kind": "user",
				"methods": {},
				"version": 1
			}
		}
	}
}